{
  "contractName": "election",
  "abi": [
    {
      "inputs": [],
      "payable": false,
      "stateMutability": "nonpayable",
      "type": "constructor"
    },
    {
      "constant": true,
      "inputs": [
        {
          "internalType": "address",
          "name": "",
          "type": "address"
        }
      ],
      "name": "voters",
      "outputs": [
        {
          "internalType": "bool",
          "name": "",
          "type": "bool"
        }
      ],
      "payable": false,
      "stateMutability": "view",
      "type": "function"
    },
    {
      "constant": false,
      "inputs": [
        {
          "internalType": "uint256",
          "name": "id",
          "type": "uint256"
        }
      ],
      "name": "castVote",
      "outputs": [],
      "payable": false,
      "stateMutability": "nonpayable",
      "type": "function"
    },
    {
      "constant": true,
      "inputs": [],
      "name": "viewVote",
      "outputs": [
        {
          "internalType": "uint256[3]",
          "name": "",
          "type": "uint256[3]"
        }
      ],
      "payable": false,
      "stateMutability": "view",
      "type": "function"
    }
  ],
  "bytecode": "0x608060405234801561001057600080fd5b5060008060006003811061002057fe5b018190555060008060016003811061003457fe5b018190555060008060026003811061004857fe5b018190555061030b8061005c6000396000f3fe608060405234801561001057600080fd5b50600436106100415760003560e01c80633eb76b9c14610046578063a3ec138d14610074578063cf26b5a4146100d0575b600080fd5b6100726004803603602081101561005c57600080fd5b8101908080359060200190929190505050610116565b005b6100b66004803603602081101561008a57600080fd5b81019080803573ffffffffffffffffffffffffffffffffffffffff169060200190929190505050610249565b604051808215151515815260200191505060405180910390f35b6100d8610269565b6040518082600360200280838360005b838110156101035780820151818401526020810190506100e8565b5050505090500191505060405180910390f35b600360003373ffffffffffffffffffffffffffffffffffffffff1673ffffffffffffffffffffffffffffffffffffffff16815260200190815260200160002060009054906101000a900460ff161561016d57600080fd5b6001600360003373ffffffffffffffffffffffffffffffffffffffff1673ffffffffffffffffffffffffffffffffffffffff16815260200190815260200160002060006101000a81548160ff02191690831515021790555060008114156101f0576001600080600381106101dd57fe5b0160008282540192505081905550610246565b600181141561021c576001600060016003811061020957fe5b0160008282540192505081905550610245565b6002811415610244576001600060026003811061023557fe5b01600082825401925050819055505b5b5b50565b60036020528060005260406000206000915054906101000a900460ff1681565b6102716102b4565b60006003806020026040519081016040528092919082600380156102aa576020028201915b815481526020019060010190808311610296575b5050505050905090565b604051806060016040528060039060208202803883398082019150509050509056fea265627a7a72315820c8c71581767f97c5974c1ca90aa52471dff955efa87ba56d447f2caa1539e4c864736f6c63430005100032",
  "source": "pragma solidity 0.5.16;\n\ncontract election {\n\tuint[3] private votes;\n\tmapping(address => bool) public voters;\n\n\tconstructor() public {\n\t\tvotes[0]=0;\n\t\tvotes[1]=0;\n\t\tvotes[2]=0;\n\t}\n\t\n\tfunction castVote(uint id) public {\n\n\t\trequire(!voters[msg.sender]);\n\n\t\tvoters[msg.sender]=true;\t\t\n\t\t\n\t\tif(id==0) {\n\t\t\tvotes[0]+=1;\t\n\t\t} else if(id==1) {\n\t\t\tvotes[1]+=1;\n\t\t} else if(id==2) {\n\t\t\tvotes[2]+=1;\n\t\t}\n\t}\n\t\n\tfunction viewVote() public view returns(uint[3] memory) {\n\t\treturn(votes);\n\t}\n}\n",
  "sourcePath": "/home/mad/bc-bootcamp/election-dapp/contracts/election.sol",
  "compiler": {
    "name": "solc",
    "version": "0.5.16+commit.9c3226ce.Emscripten.clang"
  },
  "schemaVersion": "3.3.1",
  "updatedAt": "2020-10-21T07:58:14.363Z",
  "networkType": "ethereum",
  "devdoc": {
    "methods": {}
  },
  "userdoc": {
    "methods": {}
  }
}